:03000000020006F5
:12005F00753E00752C00752D00753065753100020003E4
:03000300020638BA
:20007100758400758920758E10758D60227584007598107584017598502275840075D107EC
:200091002275840F75E3442275A88075E7402212007112007E12008B12009212009922AE3D
:2000B10082AF838E048F051EBEFF011FEC4D70F322AE82AF83EE4F600F7D7AED70031D809A
:2000D100FA1EBEFF011F80ED22AE82AF837C007D00C3EC9EED64808FF063F08095F05007E4
:2000F1000CBC00ED0D80EA22C2A790001D1200DAD2A79000031200DAA2A7E433FE7F00903A
:200111000019C007C0061200DAD006D0078E828F8322D2A79000081200B0C2A7900050121D
:2001310000B0D2A790000E1200B0A2A79000141200B0227F007E08C2A790003CC007C0068D
:200151001200DAD006D007D2A730A7108EF005F07401800225E0D5F0FBFD4207900050C080
:2001710007C0061200DAD006D007DECB8F8222C2A7D2A77F03EF14FEFF70FAA2A7E433F509
:200191008222AF82C2A7BF0102D2A79000051200DAD2A722AF827E08C2A7EF13920092A7CC
:2001B10090003CC007C0061200DAD006D007D2A7EFC313FFEE14FDFE70DE9000461200DAF2
:2001D10022752F001200F9E5828583F045F07004E52D6008752C0075820080037582002287
:2001F100752C00752D001201D2221200F9E5828583F045F060057582008032758255120198
:20021100A57F00E52E75F008A42458FD740F35F0FEEF2DF582E43EF583E493F582C0071272
:2002310001A5D0070FBF080040D9758201221201237582CC1201A575827F1201A57582440D
:200251001201A51201237582CC1201A57582BE1201A5120144E582F523120144E582F5240A
:2002710022E524FF20E70302031B8F058D067D00AB237C00EB4205EC42061DBDFF011EEDE0
:20029100F4FDEEF4C4CDC4540F6DCD540FCD6DCDFE8D828E83120CB485822885832985F059
:2002B1002AF52BAC231CECF4FC53040F8C82120D4585823A85833B85F03CF53DC03AC03BE8
:2002D100C03CC03D90000075F080743D120B1485823685833785F038F539E58124FCF5816A
:2002F100C036C037C038C039852882852983852AF0E52B120C5B85822885832985F02AF593
:200311002BE58124FCF5810203B48F058D067D00AB237F00EB4205EF42061DBDFF011EEDAD
:20033100F4FDEEF4C4CDC4540F6DCD540FCD6DCDFE8D828E83120CB485822885832985F0B8
:200351002AF52BAC231CECF4FC53040F8C82120D45AC82AD83AEF0FFC004C005C006C00792
:2003710090000075F080743D120B1485823685833785F038F539E58124FCF581C036C037D5
:20039100C038C039852882852983852AF0E52B120C5B85822885832985F02AF52BE581242A
:2003B100FCF58122D2A3A20192A2A20292A0A202B392A100000000D2A40000000000000076
:2003D1000075840F85C88275840000000000C2A400000000000000000000000022AF82C2C1
:2003F10001A2049202C0071203B5E582D00720E7EEC2A3A20492A0A204B392A1A20392A24B
:2004110075840F8FC875840000000000D2A4000000000000000000000000C2A475840F751A
:20043100C8FF758400D2A300000000000000000000000022C2A4D2A5D2A0C2A175840F7525
:20045100C8FF758400C201C2021203B5E58220E4F4C201D2021203B5E58220E4F4C203C2D4
:200471000475823F1203EEC203D20475823F1203EEC203C2047582401203EEC203C2047595
:2004910082B81203EEC203C2047582C01203EEC203D2047582401203EEC203D2047582B8AA
:2004B1001203EEC203D2047582C01203EE22AF8253073F74404FF582C203A2059204120356
:2004D100EE22AF8253070774B84FF582C203A20692041203EE22AE82AF837D008D037C0064
:2004F100C3EB9EEC9F501BD203A2079204758200C007C006C0051203EED005D006D0070DBA
:2005110080DA227F00A2089205758200C0071204BFD007A20892068F82C0071204D3D0074A
:200531007E00D203A2089204758200C007C0061203EED006D0070EBE400040E60FBF0800DB
:2005510040C322AF82BF09005031EF14FEC2068E82C0061204D3D006D2068E82C0061204C9
:20057100D3D006C2058E82C0061204BFD006D2058E821204BF753E0002063774F8253E40BC
:2005910004C2098002D209EF24E075F005A42467FE740D35F0FF8E828F83E493FDD203A2E2
:2005B1000992048D82C007C0061203EED006D0078E828F83A3E493FDD203A20992048D82E1
:2005D100C007C0061203EED006D0078E828F83A3A3E493FDD203A20992048D82C007C0063F
:2005F1001203EED006D0078E828F83A3A3A3E493FDD203A20992048D82C007C0061203EE06
:20061100D006D0078E828F83A3A3A3A3E493FFD203A20992048F821203EEA20992079000FA
:20063100031204E7053E221200A0758400120445C208120514D208120514D2057582001264
:2006510004BFD2067582001204D3C2057582001204BFC2067582001204D312023F120272FA
:20067100C028C029C02AC02B747AC0E0740FC0E0120693E58124FAF5819001F41200C28094
:02069100D9226C
:200D6700000000000000005F00000007000700147F147F14242A7F2A122313086462364939
:200D87005522500005030000001C2241000041221C00082A1C2A0808083E08080050300021
:200DA700000808080808003030000020100804023E5149453E00427F400042615149462166
:200DC70041454B311814127F1027454545393C4A4949300171090503364949493606494964
:200DE700291E003636000000563600000008142241141414141441221408000201510906E8
:200E0700324979413E7E1111117E7F494949363E414141227F4141221C7F494949417F0914
:200E27000901013E414151327F0808087F00417F41002040413F017F081422417F40404028
:200E4700407F0204027F7F0408107F3E4141413E7F090909063E4151215E7F0919294646A7
:200E67004949493101017F01013F4040403F1F2040201F7F2018207F631408146303047815
:200E87000403615149454300007F4141020408102041417F00000402010204404040404034
:200EA700000102040020545454787F484444383844444420384444487F3854545418087E8C
:200EC700090102081454543C7F0804047800447D40002040443D00007F10284400417F401B
:200EE700007C041804787C0804047838444444387C14141408081414187C7C080404084837
:200F070054545420043F4440203C4040207C1C2040201C3C4030403C44281028440C5050FB
:200F2700503C4464544C44000836410000007F0000004136080008082A1C08081C2A080859
:040F7A0001256600E7
:20069300C00E85810EE50E24FDF8868318868218E493A3B42577C20AC20BC20CC20DC20EA8
:2006B300C20F79087700C210E493A324C64017240A50157005B50802D20FD20EFAE775F063
:2006D3000AA42AF780E2240A2430B46C04D20A80D7B46804D20B80D0B4730302072BB4643A
:2006F30006120A05020787B47506120A050207A7B4630518E6188017B47803020766B466AF
:20071300030208BBB42E0679097700809B6006120AF70206A3020B11C083C08286F0188627
:200733008318868218300E19C20FC082C083120D296007A31508E50870F4120AE2D083D05D
:2007530082120D296006A3120AF780F5D082D0830206A312077E200B0C12077E300A061224
:20077300077E12077E120B090206A3E6120AE7E618020AE8ED30E71CD20DE9F42401F92084
:200793000B12EAF43400FA300A0AEBF43400FBECF43400FC200B10300A08EB7024EC702142
:2007B300C20AEA701CD20BE97017201014300E09E50860051508120AE27430120AF70206E0
:2007D300A3C082C083120A1F300E60790A300A1DEB54F0703619EB540F703019EA54F07098
:2007F3002A19EA540F702419EF54F0701E7905200B0BEF540F701419EE54F0700E7903EE2B
:20081300540F700719ED54F0700119E508A20D994019F508C003C002C007C006C005120A99
:20083300E2D005D006D007D002D003300D19C003C002C007C006C005742D120AF7D005D016
:2008530006D007D002D003200B40300A2CC005C006C0078A82EBF583120AE7E583120AE802
:20087300E582120AE7E582120AE8D0E0F582120AE7E582D083D08280058D828E83EF120AAA
:20089300E8E583120AE7E58380038D82EE120AE8E582120AE7E582120AE8120B09D083D0E8
:2008B30082301001220206A3300E0EE508D39509F50850287508008023E6547FFA18860302
:2008D30008AE82AF8390114A7D07E4932BA3E4933A5003A3DDF48D098E828F83C0001209DC
:2008F300E7C082C083EFB47E02801940112482FDC3EA33FAEB33FBEC33FCDDF48006F4244C
:200913007F120BE575F01BE4F8FFFEFD9010DEE933F9EA33FAEB33FBEC33FC5017E4932D04
:20093300D4FD7401933ED4FE7402933FD4FF74039338D4F8A3A3A3A3D5F0D4E47C50FBFAC8
:20095300F9E509232354FC8883120BE5ED29D4F50DEE3AD4F50CEF3BD4F50BE5833CD4F5A6
:200973000A92D5D083D082D0001209E7C000C3749E9F5005D0000206BBC082120BE5D082CA
:2009930030D50FE92401F9E43AFAE43BFBE43CFC40E2D2101207A7200E0CE509600812096C
:2009B300D77003D509F4E5096015742E120AF77800D20C08E81209D7120AE8E8B509F4D04A
:2009D300000206A314C31392D5240AF9E720D501C4540F22E618F9E618FC33E933920DFFDD
:2009F3006003430480E618FBE618FA7900C20BD20A22E6F9FD18200B12AA01E6F918300A78
:200A13000AAC02AB01E6FA18E6F91822E975F06484FE740AC5F084C445F0FD300B0122EA25
:200A3300540FF9900F7E932DD4FDE94410933ED4FEEAC4540FF9900F9E932DD4FDE94410A4
:200A5300933ED4FEE94420933400D4FF200A0122EB540FF9900FCE932DD4FDE94410933E59
:200A7300D4FEE94420933FD4FFE43400FAEBC4540FF9900FFE932DD4FDE94410933ED4FE74
:200A9300E94420933FD4FFE94430933AD4FAEC540FF990103E7B00120AB5ECC4540FF9904B
:200AB300108E932DD4FDE94410933ED4FEE94420933FD4FFE94430933AD4FAE94440933BEF
:200AD300D4FB227420300F027430120AF71508E50870F022C4540F7003300C19D20C249079
:200AF300D43440D4C083C082C000F582120554D000D082D08322200CFC7430020AF7D00E5C
:010B130022BF
:200F7E0000561268248036924804601672288440000205071012151720232528303335383B
:200F9E000096928884807672686460565248444000408122630445862768095091327314B0
:200FBE0000000001010202020303040404050506003672084480165288246096326804408D
:200FDE000055106621763287429853086419753000061319263239455258657278859198D2
:200FFE00007652280480563208846036128864400085715743281400867157432914008657
:20101E000004091419242934384348535863687200010203040506070809101112131415B0
:20103E000016324864809612284460769208244000724416886032057749219365381082A8
:20105E000077553310886644219977543210886500163350678300173450678401183451D6
:20107E000000000000000101010101010202020200561268248036924804601672288440E8
:20109E00005409631872278136914500540963180043873074176104489135792266095307
:2010BE00006836057342107947158452218958260002050810131618212426293234374006
:2010DE000000005000000025000050120000250600501203002556015012780025063900D1
:2010FE00125319005676090028880400144402000722010004610000523000002615000025
:20111E00630700008103000091010000950000004800000024000000120000000600000018
:1A113E000300000001000000010000007DC5DDC334C2E0BE38BD86BBE4B949
:200B1400120BB7BC0003020CE1EF60FA30D502B2D1E583B4FF03020CF7E582B4FF03020C1E
:200B3400F7258340072482400B020CE12483145003020CF7F582EA8DF0A4A8F0EA8EF0A4A2
:200B540028F8E435F0F9EB8DF0A428E935F0F9E433CA8FF0A429F9EA35F0FAEBF88EF0A4F0
:200B740029F9EA35F0FAE433FBEC8DF0A429F9EA35F0FAE43BFBE88FF0A42AFAEB35F0FB98
:200B9400E433CCFD8EF0A42AFAEB35F0FBE43CFCED8FF0A42BFBEC35F0FC20E703120C2861
:030BB400020CC070
:200BB700AA82AB83A2F73392D1F5826002D2F7ACF0E58124F9F8E6FD08E6FE0886F008E6A1
:0E0BD700A2F73392D5F5836002D2F7AFF02279
:06003500E478FFF6D8FD9F
:200BE5006040F82582500274FFF582E824F8501ECCCBCAF9E4CC24F85014CBCAF9E4CB2418
:200C0500F8500BCAF9E4CA24F8500379002224086010F8C3EC13FCEB13FBEA13FAE913F9CA
:030C2500D8F122E1
:200C28007804EC7011E58224F8500AF582E4C9CACBFCD8EF22EC7820058220E713D58201CB
:130C480022C3E933F9EA33FAEB33FBEC33FCD8EA158222D9
:200013007900E94400601B7A00901158780175A200E493F2A308B8000205A2D9F4DAF27526
:02003300A2FF2A
:20003B007800E84400600A790175A200E4F309D8FC7800E84400600C7900900001E4F0A3C1
:04005B00D8FCD9FAFA
:200C5B00120BB77900E583B58202800D5003120D0FE583C39582120BE5E5D0C465D020E18A
:200C7B0017EA2DFAEB3EFBEC3FFC50097401120BE5EC4480FC020CC0C3EA9DFAEB9EFBECE8
:190C9B009FFC500FC3E499F9E49AFAE49BFBE49CFCB2D1120C28020CC008
:0C0CB400E4AC83AB82FAF9748E020D5997
:200CC000B98003EA13B34010EA2401FAE43BFBE43CFC50047C800582BC000EBB000BBA0078
:200CE00008E4F5F0F583F58222A2D1E582138CF092F78B838A8222E4F583F58275F080F438
:0F0D0000A2D11322E4F583F58275F0C0747F222F
:1A0D0F00E582C583F582A2D133A2D592D11392D5ECCFFCEBCEFBEACDFA226C
:0D00060075813E120D63E582600302000368
:1C0D290020F71430F6148883A88220F507E6A88375830022E280F7E49322E022D9
:0B0D4500E4AC82FBFAF97486020D5941
:130D5000FCABF0AA83A982749EC2D1F582120C28020CC071
:040D63007582002273
:00000001FF
